:10049E00EF4E600F7D027CC7DCFEDDFCEF1F70F0BF
:0304AE001E80EDC0
:0104B1002228
:0604C600C2A58F80D2A741
:0804CC007F027EEFDEFEDFFC83
:0104D4002205
:0A04E100C2A61204C6C2A70204CC92
:10043400CFCDCFCECCCE1202A87C007D0A1202A86A
:04044400ED2430FF74
:0A044800D2A61204C6C2A70204CC1B
:10048800AE07BE0104ED148006BE0209ED243F4408
:0604980080FF1204E122C6
:1004B2007F381204E17F0C1204E17F061204E17F0F
:0404C200010204E14E
:0A04EB00AC03120488AF04020448B9
:060411008B088A09890A2C
:10041700120488E4FDAB08AA09A90A8D8275830036
:0C042700120269FF60061204480D80E913
:0104330022A6
:0C03DE007F0AEA24FFFDE434FFFC7E00EF
:0803EA008E0D8F0E8C0F8D109B
:1003F2007F017E00E4FBEBC39510E50F6480F87487
:0E0402008098500AAC0DAD0E1202960B80E8E9
:0104100022C9
:040452008A0A8B0B7C
:10045600120488AA0CEAD39400400D1203DEAC0AFB
:08046600AD0B1204341A80ED05
:01046E00226B
:10033300120488C3EA64809480400B7F2B12044824
:100343008A168B17800E7F2D120448C3E49BF51782
:10035300E49AF516AA15EAD39400400D1203DEAC15
:0903630016AD171204341A80EDE6
:01036C00226E
:04036D008A208B2136
:10037100120488AA22EAD3940040297F101203E0D4
:10038100AC20AD21CFCDCFCECCCE1202A8EF540FF1
:10039100FEC3940AEE5004243080022437FF120475
:0403A100481A80D1A5
:0103A5002235
:0403A6008A258B26F3
:1003AA00120488AA27EAD394004028EA24FFFDE42D
:1003BA0034FFFC7F027E001203EAAC25AD26CFCDC6
:1003CA00CFCECCCE1202A8EF54012430FF1204483B
:0303DA001A80D2B4
:0103DD0022FD
:10046F0050617373576F72643A004F4B004552528D
:09047F004F520020202020200033
:10018C001204B27BFF7A04796F7D017F0112041196
:10019C00120003751C008F1DE51D451C6050D3E536
:1001AC001D940AE51C648094805035C3E5199404B1
:1001BC00E518648094805028AE1AAF1B7C007D0A31
:1001CC001202968E1A8F1BAE1CAF1D1202FDED256E
:1001DC001BF51BEC351AF51A0519E51970020518F3
:1001EC00750C04AB1BAA1A7D017F02120452E51D8B
:1001FC00640B451C7036E51BB4290DE51AB40908CF
:10020C007BFF7A04797980067BFF7A04797C7D0CFC
:10021C007F01120411E4F51AF51BF518F519750C8C
:10022C0004AB1BAA1A7D017F02120452E51D640C5B
:10023C00451C600302019CF51AF51BF518F5197B9A
:10024C00FF7A0479827D0C7F01120411750C04ABCA
:0D025C001BAA1A7D017F0212045202019CB0
:10000300E4F5087590FFC2932097137F14FE120442
:100013009E3097FD7F147E0012049E750801209682
:10002300147F147E0012049E3096FD7F147E00120E
:10003300049E7508052095147F147E0012049E30DB
:1000430095FD7F147E0012049E7508092094147F89
:10005300147E0012049E3094FD7F147E0012049ED1
:1000630075080D7590FFC2922097147F147E0012BD
:10007300049E3097FD7F147E0012049E75080220B3
:1000830096147F147E0012049E3096FD7F147E002A
:1000930012049E7508062095147F147E0012049E98
:1000A3003095FD7F147E0012049E75080A20941477
:1000B3007F147E0012049E3094FD7F147E00120490
:1000C3009E75080E7590FFC2912097147F147E00D1
:1000D30012049E3097FD7F147E0012049E75080360
:1000E3002096147F147E0012049E3096FD7F147EAA
:1000F3000012049E7508072095147F147E001204D5
:100103009E3095FD7F147E0012049E75080B20948B
:10011300147F147E0012049E3094FD7F147E00121F
:10012300049E75080F7590FFC2902097147F147E6C
:100133000012049E3097FD7F147E0012049E750802
:10014300042096147F147E0012049E3096FD7F14C3
:100153007E0012049E7508082095147F147E0012F9
:10016300049E3095FD7F147E0012049E75080C20BA
:1001730094147F147E0012049E3094FD7F147E003D
:0801830012049E750810AF087C
:01018B002251
:030000000204D522
:0C04D500787FE4F6D8FD75812702018CC9
:10026900BB010CE58229F582E5833AF583E022504A
:1002790006E92582F8E622BBFE06E92582F8E22294
:0D028900E58229F582E5833AF583E49322AE
:10029600EF8DF0A4A8F0CF8CF0A428CE8DF0A42E7C
:0202A600FE2236
:1002A800BC000BBE0029EF8DF084FFADF022E4CC3A
:1002B800F875F008EF2FFFEE33FEEC33FCEE9DEC03
:1002C800984005FCEE9DFE0FD5F0E9E4CEFD22ED49
:1002D800F8F5F0EE8420D21CFEADF075F008EF2F93
:1002E800FFED33FD4007985006D5F0F222C398FD84
:0502F8000FD5F0EA2221
:1002FD00C2D5EC30E709B2D5E4C39DFDE49CFCEE1C
:10030D0030E715B2D5E4C39FFFE49EFE1202A8C3E9
:10031D00E49DFDE49CFC80031202A830D507C3E4E4
:06032D009FFFE49EFE228A
:00000001FF
