:10015300E4FDFC7F0112008F1200F28F12E51260A2
:10016300F7E4F513F514B2A57F017E001201B8057B
:1001730014E51470020513C39464E513940040E678
:100183007F647E00120196E512FD7C007F01120060
:030193008F80C595
:1001B800EF1FAC0670011E4C600A7D027CEFDCFE6E
:0401C800DDFC80ECEE
:0101CC002210
:1000F200E4F51520B1137F14FE1201B830B1FD7F73
:10010200147E001201B875150120B0147F147E0010
:100112001201B830B0FD7F147E001201B8751502CD
:1001220020B2147F147E001201B830B2FD7F147E1B
:10013200001201B875150320B3147F147E0012015A
:10014200B830B3FD7F147E001201B8751504AF15E7
:01015200228A
:0C01CD000A083F065B4F666D7D077F6FE0
:10008F00EF14B4080050549000A475F003A4C58376
:10009F0025F0C583730200BC0200C00200C4020039
:1000AF00C80200CC0200D40200DC0200E4D2A4801B
:1000BF000ED2A48012D2A48016D2A4801AC2A4D2C7
:1000CF00A3D2A28016C2A4D2A3C2A2800EC2A4C27F
:1000DF00A3D2A28006C2A4C2A3C2A274082DF8E6BE
:0300EF00F5802277
:0501DA00007FF7DFFECD
:0101DF0022FD
:04019600AD07AC06FF
:10019A00E4FBFAED25E0FFEC33FEC3EB9FEA9E5049
:0D01AA000CB2A51201DA0BBB00010A80E6C1
:0101B7002225
:03000000020003F8
:0C000300787FE4F6D8FD75811502004AF4
:10000F00020153E493A3F8E493A34003F68001F2B3
:10001F0008DFF48029E493A3F85407240CC8C333F2
:10002F00C4540F4420C8834004F456800146F6DFC1
:10003F00E4800B01020408102040809001CDE47E83
:10004F00019360BCA3FF543F30E509541FFEE493B6
:10005F00A360010ECF54C025E060A840B8E493A37D
:10006F00FAE493A3F8E493A3C8C582C8CAC583CAA8
:10007F00F0A3C8C582C8CAC583CADFE9DEE780BE60
:0101D9000025
:00000001FF
