:1000C30075A0FE1200E312000E8F0AE50A60F7B472
:1000D30001F4050BE50BC3940240EBE4F50B80E65A
:03000B0002006F81
:0B006F00C0E0C0D075D000C000C0078A
:10007A00758A18758CFC0509E50970020508C39490
:10008A00F4E50894014029750800750900E50B702C
:10009A000DAFA07801EF08800123D8FDF5A0E50B8C
:1000AA00B4010DAFA07801EF08800103D8FDF5A0D7
:0900BA00D007D000D0D0D0E03214
:1000E3005389F0438901758A66758CFCC28DD28C65
:0700F300D2A9D2AFC2B9226D
:10000E00E4F50C20B1137F14FE1200FA30B1FD7F1F
:10001E00147E001200FA750C0120B0147F147E00BD
:10002E001200FA30B0FD7F147E001200FA750C0239
:10003E0020B2147F147E001200FA30B2FD7F147EBF
:10004E00001200FA750C0320B3147F147E00120008
:10005E00FA30B3FD7F147E001200FA750C04AF0C5B
:01006E00226F
:1000FA00EF4E600F7D027CC7DCFEDDFCEF1F70F067
:03010A001E80ED67
:01010D0022CF
:0300000002010EEC
:0C010E00787FE4F6D8FD75810C0200C378
:00000001FF
