:100168001201D375195A1201078F1AE51A64017022
:1001780023051C531C03E51C7002F519E51CB4018A
:1001880003751932E51CB4020375194BE51CB40359
:1001980003751964E51CFD7C007F0112009A80C676
:03000B000201A847
:1001A800C0E0C0F0C0D0758A9C758CFF051BE51BAC
:1001B80075F0648485F01BE51BC395195004D29033
:0B01C8008002C290D0D0D0F0D0E03216
:1001EA00EF1FAC0670011E4C600A7D027CEFDCFE3C
:0401FA00DDFC80ECBC
:0101FE0022DE
:10010700E4F51D20B1137F14FE1201EA30B1FD7F23
:10011700147E001201EA751D0120B0147F147E00C1
:100127001201EA30B0FD7F147E001201EA751D024C
:1001370020B2147F147E001201EA30B2FD7F147ED4
:10014700001201EA751D0320B3147F147E0012010B
:10015700EA30B3FD7F147E001201EA751D04AF1D5E
:010167002275
:1001D3005389F0438901758A9C758CFFC28DD28C3B
:0701E300D2A9D2AFC2B9227C
:1001FF0011083F065B4F666D7D077F6F777C395E19
:03020F0079710002
:10009A00EF14B4080050549000AF75F003A4C58360
:1000AA0025F0C583730200C70200CB0200CF02000D
:1000BA00D30200D70200DF0200E70200EFD2A480D9
:1000CA000ED2A48012D2A48016D2A4801AC2A4D2BC
:1000DA00A3D2A28016C2A4D2A3C2A2800EC2A4C274
:1000EA00A3D2A28006C2A4C2A3C2A274082DF8E6B3
:0D00FA00F5807F017E001201EAE4F580220E
:0300000002000EED
:0C000E00787FE4F6D8FD75811D020055D6
:10001A00020168E493A3F8E493A34003F68001F293
:10002A0008DFF48029E493A3F85407240CC8C333E7
:10003A00C4540F4420C8834004F456800146F6DFB6
:10004A00E4800B01020408102040809001FFE47E46
:10005A00019360BCA3FF543F30E509541FFEE493AB
:10006A00A360010ECF54C025E060A840B8E493A372
:10007A00FAE493A3F8E493A3C8C582C8CAC583CA9D
:10008A00F0A3C8C582C8CAC583CADFE9DEE780BE55
:0102120000EB
:00000001FF
