:0B03DD0048656C6C6F204563686F0082
:1002FE001203AE7BFF7A0379DD7D017F01120326A7
:10030E001200038F22E52260F7FB7A00750C027D46
:08031E00017F0212036780E871
:10039A00EF4E600F7D027CC7DCFEDDFCEF1F70F0C4
:0303AA001E80EDC5
:0103AD00222D
:0603C200C2A58F80D2A746
:0803C8007F027EEFDEFEDFFC88
:0103D000220A
:0A03E800C2A61203C2C2A70203C896
:10034900CFCDCFCECCCE1201CB7C007D0A1201CB12
:04035900ED2430FF60
:0A035D00D2A61203C2C2A70203C811
:10038400AE07BE0104ED148006BE0209ED243F440D
:0603940080FF1203E822C5
:1003AE007F381203E87F0C1203E87F061203E87F02
:0403BE00010203E84D
:0A03F200AC03120384AF0402035DA4
:060326008B088A09890A18
:10032C00120384E4FDAB08AA09A90A8D8275830027
:0C033C0012018CFF600612035D0D80E9C9
:010348002292
:0C02CB007F0AEA24FFFDE434FFFC7E0003
:0802D7008E0D8F0E8C0F8D10AF
:1002DF007F017E00E4FBEBC39510E50F6480F8749B
:0E02EF008098500AAC0DAD0E1201B90B80E8DC
:0102FD0022DE
:040367008A0A8B0B68
:10036B00120384AA0CEAD39400400D1202CBAC0A00
:08037B00AD0B1203491A80EDDD
:010383002257
:10022000120384C3EA64809480400B7F2B12035D29
:100230008A168B17800E7F2D12035DC3E49BF51782
:10024000E49AF516AA15EAD39400400D1202CBAC3D
:0902500016AD171203491A80EDE6
:010259002282
:04025A008A1A8B1B56
:10025E00120384AA1CEAD3940040297F101202CD07
:10026E00AC1AAD1BCFCDCFCECCCE1201CBEF540FEF
:10027E00FEC3940AEE5004243080022437FF12038A
:04028E005D1A80D1A4
:010292002249
:040293008A1F8B2013
:10029700120384AA21EAD394004028EA24FFFDE44C
:1002A70034FFFC7F027E001202D7AC1FAD20CFCDFA
:1002B700CFCECCCE1201CBEF54012430FF12035D19
:0302C7001A80D2C8
:0102CA002211
:10000300E4F5087590FFC2932097137F14FE120343
:100013009A3097FD7F147E0012039A75080120968B
:10002300147F147E0012039A3096FD7F147E001213
:10003300039A7508052095147F147E0012039A30E5
:1000430095FD7F147E0012039A7508092094147F8E
:10005300147E0012039A3094FD7F147E0012039ADB
:1000630075080D7590FFC2922097147F147E0012BD
:10007300039A3097FD7F147E0012039A75080220BD
:1000830096147F147E0012039A3096FD7F147E002F
:1000930012039A7508062095147F147E0012039AA2
:1000A3003095FD7F147E0012039A75080A2094147C
:1000B3007F147E0012039A3094FD7F147E00120396
:1000C3009A75080E7590FFC2912097147F147E00D5
:1000D30012039A3097FD7F147E0012039A7508036A
:1000E3002096147F147E0012039A3096FD7F147EAF
:1000F3000012039A7508072095147F147E001203DB
:100103009A3095FD7F147E0012039A75080B209494
:10011300147F147E0012039A3094FD7F147E001224
:10012300039A75080F7590FFC2902097147F147E71
:100133000012039A3097FD7F147E0012039A75080C
:10014300042096147F147E0012039A3096FD7F14C8
:100153007E0012039A7508082095147F147E0012FE
:10016300039A3095FD7F147E0012039A75080C20C4
:1001730094147F147E0012039A3094FD7F147E0042
:0801830012039A750810AF0881
:01018B002251
:030000000203D127
:0C03D100787FE4F6D8FD7581220202FE60
:10018C00BB010CE58229F582E5833AF583E0225028
:10019C0006E92582F8E622BBFE06E92582F8E22272
:0D01AC00E58229F582E5833AF583E493228C
:1001B900EF8DF0A4A8F0CF8CF0A428CE8DF0A42E5A
:0201C900FE2214
:1001CB00BC000BBE0029EF8DF084FFADF022E4CC18
:1001DB00F875F008EF2FFFEE33FEEC33FCEE9DECE1
:1001EB00984005FCEE9DFE0FD5F0E9E4CEFD22ED27
:1001FB00F8F5F0EE8420D21CFEADF075F008EF2F71
:10020B00FFED33FD4007985006D5F0F222C398FD61
:05021B000FD5F0EA22FE
:00000001FF
