:1003AA00EF4E600F7D027CC7DCFEDDFCEF1F70F0B4
:0303BA001E80EDB5
:0103BD00221D
:0603D200C2A58F80D2A736
:0803D8007F027EEFDEFEDFFC78
:0103E00022FA
:0A03ED00C2A61203D2C2A70203D871
:10035900CFCDCFCECCCE1201CB7C007D0A1201CB02
:04036900ED2430FF50
:0A036D00D2A61203D2C2A70203D8E1
:10039400AE07BE0104ED148006BE0209ED243F44FD
:0603A40080FF1203ED22B0
:1003BE007F381203ED7F0C1203ED7F061203ED7FE3
:0403CE00010203ED38
:0A03F700AC03120394AF0402036D7F
:060336008B088A09890A08
:10033C00120394E4FDAB08AA09A90A8D8275830007
:0C034C0012018CFF600612036D0D80E9A9
:010358002282
:0C0303007F0AEA24FFFDE434FFFC7E00CA
:08030F008E0D8F0E8C0F8D1076
:100317007F017E00E4FBEBC39510E50F6480F87462
:0E0327008098500AAC0DAD0E1201B90B80E8A3
:0103350022A5
:040377008A0A8B0B58
:10037B00120394AA0CEAD39400400D120303AC0AA7
:08038B00AD0B1203591A80EDBD
:010393002247
:10022000120394C3EA64809480400B7F2B12036D09
:100230008A168B17800E7F2D12036DC3E49BF51772
:10024000E49AF516AA15EAD39400400D120303AC04
:0902500016AD171203591A80EDD6
:010259002282
:04025A008A1A8B1B56
:10025E00120394AA1CEAD3940040297F10120305BE
:10026E00AC1AAD1BCFCDCFCECCCE1201CBEF540FEF
:10027E00FEC3940AEE5004243080022437FF12038A
:04028E006D1A80D194
:010292002249
:040293008A1F8B2013
:10029700120394AA21EAD394004028EA24FFFDE43C
:1002A70034FFFC7F027E0012030FAC1FAD20CFCDC1
:1002B700CFCECCCE1201CBEF54012430FF12036D09
:0302C7001A80D2C8
:0102CA002211
:0A04010050617373576F72643A0084
:1002CB001203BE7BFF7A0479017D017F0112033695
:1002DB001200038F23E52360F7D3940A5009E5231B
:1002EB0075F00A8485F022E522FB7A00750C027DFD
:0802FB00017F0212037780D895
:10000300E4F5087590FFC2932097137F14FE120343
:10001300AA3097FD7F147E001203AA75080120966B
:10002300147F147E001203AA3096FD7F147E001203
:1000330003AA7508052095147F147E001203AA30C5
:1000430095FD7F147E001203AA7508092094147F7E
:10005300147E001203AA3094FD7F147E001203AABB
:1000630075080D7590FFC2922097147F147E0012BD
:1000730003AA3097FD7F147E001203AA750802209D
:1000830096147F147E001203AA3096FD7F147E001F
:100093001203AA7508062095147F147E001203AA82
:1000A3003095FD7F147E001203AA75080A2094146C
:1000B3007F147E001203AA3094FD7F147E00120386
:1000C300AA75080E7590FFC2912097147F147E00C5
:1000D3001203AA3097FD7F147E001203AA7508034A
:1000E3002096147F147E001203AA3096FD7F147E9F
:1000F300001203AA7508072095147F147E001203CB
:10010300AA3095FD7F147E001203AA75080B209474
:10011300147F147E001203AA3094FD7F147E001214
:1001230003AA75080F7590FFC2902097147F147E61
:10013300001203AA3097FD7F147E001203AA7508EC
:10014300042096147F147E001203AA3096FD7F14B8
:100153007E001203AA7508082095147F147E0012EE
:1001630003AA3095FD7F147E001203AA75080C20A4
:1001730094147F147E001203AA3094FD7F147E0032
:080183001203AA750810AF0871
:01018B002251
:030000000203E117
:0C03E100787FE4F6D8FD7581230202CB82
:10018C00BB010CE58229F582E5833AF583E0225028
:10019C0006E92582F8E622BBFE06E92582F8E22272
:0D01AC00E58229F582E5833AF583E493228C
:1001B900EF8DF0A4A8F0CF8CF0A428CE8DF0A42E5A
:0201C900FE2214
:1001CB00BC000BBE0029EF8DF084FFADF022E4CC18
:1001DB00F875F008EF2FFFEE33FEEC33FCEE9DECE1
:1001EB00984005FCEE9DFE0FD5F0E9E4CEFD22ED27
:1001FB00F8F5F0EE8420D21CFEADF075F008EF2F71
:10020B00FFED33FD4007985006D5F0F222C398FD61
:05021B000FD5F0EA22FE
:00000001FF
