:10007000000C1C21DEE03F1000061621DEE03F10E0
:1000800000031321DEE03F100C0C1021DEE03F10D6
:08009000000C1C21DEE03F1012
:10000300E4F509F50A1200DAE4F508E50825099094
:10001300007093FD7C00AF081200980508E508C343
:10002300940840E7050AE50AD3940F40DBE4F50A98
:1000330074082509F509D3942040CDE4F50980C857
:1000BA00EF4E600F7D027CC7DCFEDDFCEF1F70F0A7
:0300CA001E80EDA8
:0100CD002210
:02004300AD0707
:10004500E4FB74807E00A803088006CEA2E713CEE9
:1000550013D8F8FFEDF582EF558224FF92B4D2B69E
:0A006500C2B60BBB08DCD2B5C2B571
:01006F00226E
:0500DA00C2B6C2B52210
:10009800AA07AF05120043AF027480A807088002C0
:1000A800C313D8FCF4F5807F017E001200BA758076
:0200B800FF2225
:030000000200CE2D
:0C00CE00787FE4F6D8FD75810A0200037B
:00000001FF
