:0B02F90041444A204E5443205247006D
:100105001202CA7BFF7A0279F97D017F0112024151
:100115007F9C1200978E228F23750C03AB23AA2296
:100125007D017F021202827FDC1200978E228F23CF
:10013500750C03AB23AA227D057F021202827FACD8
:100145001200978E228F23750C03AB23AA227D09FB
:0E0155007F021202827F0A7E001202B580B283
:1002B500EF1FAC0670011E4C600A7D027CEFDCFE70
:0402C500DDFC80ECF0
:0102C9002212
:0602DE00C2A58F80D2A72B
:0802E4007F027EEFDEFEDFFC6D
:0102EC0022EF
:0A030400C2A61202DEC2A70202E444
:10026400CFCDCFCECCCE1200427C007D0A1200420C
:04027400ED2430FF46
:0A027800D2A61202DEC2A70202E4C1
:10029F00AE07BE0104ED148006BE0209ED243F44F3
:0602AF0080FF120304228F
:1002CA007F381203047F0C1203047F061203047F93
:0402DA000102030416
:0A030E00AC0312029FAF0402027854
:060241008B088A09890AFE
:1002470012029FE4FDAB08AA09A90A8D82758300F3
:0C025700120003FF60061202780D80E91F
:010263002278
:0C020E007F0AEA24FFFDE434FFFC7E00C0
:08021A008E0D8F0E8C0F8D106C
:100222007F017E00E4FBEBC39510E50F6480F87458
:0E0232008098500AAC0DAD0E1200300B80E823
:01024000229B
:040282008A0A8B0B4E
:1002860012029FAA0CEAD39400400D12020EAC0A89
:08029600AD0B1202641A80EDA9
:01029E00223D
:1001630012029FC3EA64809480400B7F2B120278B3
:100173008A168B17800E7F2D120278C3E49BF51726
:10018300E49AF516AA15EAD39400400D12020EACB8
:0901930016AD171202641A80ED8A
:01019C002240
:04019D008A1A8B1B14
:1001A10012029FAA1CEAD3940040297F1012021068
:1001B100AC1AAD1BCFCDCFCECCCE120042EF540F37
:1001C100FEC3940AEE5004243080022437FF120249
:0401D100781A80D147
:0101D5002207
:0401D6008A1F8B20D1
:1001DA0012029FAA21EAD394004028EA24FFFDE4F0
:1001EA0034FFFC7F027E0012021AAC1FAD20CFCD75
:1001FA00CFCECCCE120042EF54012430FF12027847
:03020A001A80D285
:01020D0022CE
:02009700AD07B3
:10009900E4F508F509C2B6C2B5FB74807E00A80371
:1000A900088006CEA2E713CE13D8F8FFEDF582EF4C
:1000B900558224FF92B4D2B6C2B60BBB08DCE4FB6E
:1000C900D2B6C2B630B714E47E80A803088005CE44
:1000D900C313CE13D8F94209EE42080BBB10E1D283
:1000E900B5ED30E306E508FF7E0022E508C4F854C3
:0B00F900F0C868FEE509C4540F48FF82
:0101040022D8
:030000000202ED0C
:0C02ED00787FE4F6D8FD7581230201053E
:10000300BB010CE58229F582E5833AF583E02250B2
:1000130006E92582F8E622BBFE06E92582F8E222FC
:0D002300E58229F582E5833AF583E4932216
:10003000EF8DF0A4A8F0CF8CF0A428CE8DF0A42EE4
:02004000FE229E
:10004200BC000BBE0029EF8DF084FFADF022E4CCA2
:10005200F875F008EF2FFFEE33FEEC33FCEE9DEC6B
:10006200984005FCEE9DFE0FD5F0E9E4CEFD22EDB1
:10007200F8F5F0EE8420D21CFEADF075F008EF2FFB
:10008200FFED33FD4007985006D5F0F222C398FDEC
:050092000FD5F0EA2289
:00000001FF
