:1003AD005772697465204F6B00202020202020207B
:0B03BD0020200052656164204F4B00BF
:100003001203F3750C05AB23AA227D017F011203B2
:10001300731201768F24E524B401150523E52370BB
:10002300020522750C05FBAA227D017F01120373D1
:10003300E524B40216E523152370021522750C0579
:10004300AB23AA227D017F01120373E524640370AD
:1000530040FCAD23FF12030E7F057E001203DEE595
:1000630022FD7C007F0112030E7F057E001203DE5A
:100073007BFF7A0379AD7D017F021203327FE87E35
:10008300031203DE7BFF7A0379B67D017F0212033D
:1000930032E52464046003020014FF1202B57522E2
:1000A300008F237F011202B5EFFEEE4222750C058D
:1000B300AB23AA227D017F011203737BFF7A0379AD
:1000C300C07D017F021203327FE87E031203DE7BD1
:0F00D300FF7A0379B67D017F0212033202001417
:1003DE00EF1FAC0670011E4C600A7D027CEFDCFE46
:0403EE00DDFC80ECC6
:0103F20022E8
:06040700C2A58F80D2A700
:08040D007F027EEFDEFEDFFC42
:0104150022C4
:0A042E00C2A6120407C2A702040DC3
:10035500CFCDCFCECCCE1201217C007D0A1201215A
:04036500ED2430FF54
:0A036900D2A6120407C2A702040D79
:1003C800AE07BE0104ED148006BE0209ED243F44C9
:0603D80080FF12042E223A
:1003F3007F3812042E7F0C12042E7F0612042E7FE8
:040403000102042EC0
:0A043800AC031203C8AF040203690D
:060332008B088A09890A0C
:100338001203C8E4FDAB08AA09A90A8D82758300D7
:0C0348001200E2FF60061203690D80E95C
:010354002286
:0C0282007F0AEA24FFFDE434FFFC7E004C
:08028E008E0D8F0E8C0F8D10F8
:100296007F017E00E4FBEBC39510E50F6480F874E4
:0E02A6008098500AAC0DAD0E12010F0B80E8CF
:0102B4002227
:040373008A0A8B0B5C
:100377001203C8AA0CEAD39400400D120282AC0AF9
:08038700AD0B1203551A80EDC5
:01038F00224B
:1001D7001203C8C3EA64809480400B7F2B12036923
:1001E7008A168B17800E7F2D120369C3E49BF517C0
:1001F700E49AF516AA15EAD39400400D120282ACD0
:0902070016AD171203551A80ED23
:0102100022CB
:040211008A1A8B1B9F
:100215001203C8AA1CEAD3940040297F1012028455
:10022500AC1AAD1BCFCDCFCECCCE120121EF540FE2
:10023500FEC3940AEE5004243080022437FF1203D3
:04024500691A80D1E1
:010249002292
:04024A008A1F8B205C
:10024E001203C8AA21EAD394004028EA24FFFDE451
:10025E0034FFFC7F027E0012028EAC1FAD20CFCD8C
:10026E00CFCECCCE120121EF54012430FF12036900
:03027E001A80D211
:01028100225A
:10017600E4F50820B1137F14FE1203DE30B1FD7FD3
:10018600147E001203DE75080120B0147F147E0071
:100196001203DE30B0FD7F147E001203DE75080206
:1001A60020B2147F147E001203DE30B2FD7F147E6F
:1001B600001203DE75080320B3147F147E001203B9
:1001C600DE30B3FD7F147E001203DE750804AF082F
:0101D6002206
:10030E008F088C098D0A12044C7FA01202E512048C
:10031E0016AF081202E5120416AF0A1202E5120415
:04032E00160204555A
:0202B5008F08B0
:1002B70012044C7FA01202E5120416AF081202E5E1
:1002C70012041612044C7FA11202E512041612033F
:0D02D700908F097F01120442120455AF09F7
:0102E40022F7
:09044C00D2A0D2A1C2A0C2A122DB
:07045500C2A0D2A1D2A02237
:0202E500AD0763
:1002E700E4FB74807E00A803088006CEA2E713CE45
:1002F70013D8F8FFEDF582EF558224FF92A0D2A123
:06030700C2A10BBB08DCE3
:01030D0022CD
:10039000D2A0E4FED2A130A00D7480A8060880028D
:0C03A000C313D8FC4207C2A10EBE08E83F
:0103AC00222E
:0A044200EF24FF92A0D2A1C2A12274
:0B041600D2A0D2A1A2A0E433FFC2A13B
:0104210022B8
:03000000020422D5
:0C042200787FE4F6D8FD75812402000309
:1000E200BB010CE58229F582E5833AF583E02250D3
:1000F20006E92582F8E622BBFE06E92582F8E2221D
:0D010200E58229F582E5833AF583E4932236
:10010F00EF8DF0A4A8F0CF8CF0A428CE8DF0A42E04
:02011F00FE22BE
:10012100BC000BBE0029EF8DF084FFADF022E4CCC2
:10013100F875F008EF2FFFEE33FEEC33FCEE9DEC8B
:10014100984005FCEE9DFE0FD5F0E9E4CEFD22EDD1
:10015100F8F5F0EE8420D21CFEADF075F008EF2F1B
:10016100FFED33FD4007985006D5F0F222C398FD0C
:050171000FD5F0EA22A9
:00000001FF
